{
  "_format": "hh-sol-artifact-1",
  "contractName": "Avatar",
  "sourceName": "contracts/Avatar.sol",
  "abi": [
    {
      "inputs": [
        {
          "internalType": "address",
          "name": "avatarExchangeContractAddr",
          "type": "address"
        }
      ],
      "stateMutability": "nonpayable",
      "type": "constructor"
    },
    {
      "anonymous": false,
      "inputs": [
        {
          "indexed": true,
          "internalType": "address",
          "name": "owner",
          "type": "address"
        },
        {
          "indexed": true,
          "internalType": "address",
          "name": "approved",
          "type": "address"
        },
        {
          "indexed": true,
          "internalType": "uint256",
          "name": "tokenId",
          "type": "uint256"
        }
      ],
      "name": "Approval",
      "type": "event"
    },
    {
      "anonymous": false,
      "inputs": [
        {
          "indexed": true,
          "internalType": "address",
          "name": "owner",
          "type": "address"
        },
        {
          "indexed": true,
          "internalType": "address",
          "name": "operator",
          "type": "address"
        },
        {
          "indexed": false,
          "internalType": "bool",
          "name": "approved",
          "type": "bool"
        }
      ],
      "name": "ApprovalForAll",
      "type": "event"
    },
    {
      "anonymous": false,
      "inputs": [
        {
          "indexed": true,
          "internalType": "uint256",
          "name": "_tokenId",
          "type": "uint256"
        },
        {
          "indexed": false,
          "internalType": "address",
          "name": "owner",
          "type": "address"
        },
        {
          "indexed": false,
          "internalType": "bool",
          "name": "_isDefault",
          "type": "bool"
        }
      ],
      "name": "TokenDefaultUpdated",
      "type": "event"
    },
    {
      "anonymous": false,
      "inputs": [
        {
          "indexed": true,
          "internalType": "uint256",
          "name": "_tokenId",
          "type": "uint256"
        },
        {
          "indexed": false,
          "internalType": "address",
          "name": "owner",
          "type": "address"
        },
        {
          "indexed": false,
          "internalType": "string",
          "name": "_uri",
          "type": "string"
        }
      ],
      "name": "TokenMetadataURIUpdated",
      "type": "event"
    },
    {
      "anonymous": false,
      "inputs": [
        {
          "indexed": true,
          "internalType": "uint256",
          "name": "_tokenId",
          "type": "uint256"
        },
        {
          "indexed": false,
          "internalType": "address",
          "name": "owner",
          "type": "address"
        },
        {
          "indexed": false,
          "internalType": "string",
          "name": "_uri",
          "type": "string"
        }
      ],
      "name": "TokenURIUpdated",
      "type": "event"
    },
    {
      "anonymous": false,
      "inputs": [
        {
          "indexed": true,
          "internalType": "address",
          "name": "from",
          "type": "address"
        },
        {
          "indexed": true,
          "internalType": "address",
          "name": "to",
          "type": "address"
        },
        {
          "indexed": true,
          "internalType": "uint256",
          "name": "tokenId",
          "type": "uint256"
        }
      ],
      "name": "Transfer",
      "type": "event"
    },
    {
      "inputs": [
        {
          "internalType": "uint256",
          "name": "tokenId",
          "type": "uint256"
        },
        {
          "components": [
            {
              "internalType": "uint256",
              "name": "amount",
              "type": "uint256"
            },
            {
              "internalType": "address",
              "name": "currency",
              "type": "address"
            },
            {
              "internalType": "address",
              "name": "bidder",
              "type": "address"
            },
            {
              "internalType": "address",
              "name": "recipient",
              "type": "address"
            },
            {
              "components": [
                {
                  "internalType": "uint256",
                  "name": "value",
                  "type": "uint256"
                }
              ],
              "internalType": "struct Decimal.D256",
              "name": "sellOnShare",
              "type": "tuple"
            }
          ],
          "internalType": "struct IAvatarExchange.Bid",
          "name": "bid",
          "type": "tuple"
        }
      ],
      "name": "acceptBid",
      "outputs": [],
      "stateMutability": "nonpayable",
      "type": "function"
    },
    {
      "inputs": [
        {
          "internalType": "address",
          "name": "to",
          "type": "address"
        },
        {
          "internalType": "uint256",
          "name": "tokenId",
          "type": "uint256"
        }
      ],
      "name": "approve",
      "outputs": [],
      "stateMutability": "nonpayable",
      "type": "function"
    },
    {
      "inputs": [],
      "name": "avatarExchangeContract",
      "outputs": [
        {
          "internalType": "address",
          "name": "",
          "type": "address"
        }
      ],
      "stateMutability": "view",
      "type": "function"
    },
    {
      "inputs": [
        {
          "internalType": "address",
          "name": "owner",
          "type": "address"
        }
      ],
      "name": "balanceOf",
      "outputs": [
        {
          "internalType": "uint256",
          "name": "",
          "type": "uint256"
        }
      ],
      "stateMutability": "view",
      "type": "function"
    },
    {
      "inputs": [],
      "name": "baseURI",
      "outputs": [
        {
          "internalType": "string",
          "name": "",
          "type": "string"
        }
      ],
      "stateMutability": "view",
      "type": "function"
    },
    {
      "inputs": [
        {
          "internalType": "uint256",
          "name": "tokenId",
          "type": "uint256"
        }
      ],
      "name": "burn",
      "outputs": [],
      "stateMutability": "nonpayable",
      "type": "function"
    },
    {
      "inputs": [
        {
          "internalType": "uint256",
          "name": "tokenId",
          "type": "uint256"
        }
      ],
      "name": "getApproved",
      "outputs": [
        {
          "internalType": "address",
          "name": "",
          "type": "address"
        }
      ],
      "stateMutability": "view",
      "type": "function"
    },
    {
      "inputs": [
        {
          "internalType": "address",
          "name": "owner",
          "type": "address"
        },
        {
          "internalType": "address",
          "name": "operator",
          "type": "address"
        }
      ],
      "name": "isApprovedForAll",
      "outputs": [
        {
          "internalType": "bool",
          "name": "",
          "type": "bool"
        }
      ],
      "stateMutability": "view",
      "type": "function"
    },
    {
      "inputs": [
        {
          "internalType": "uint256",
          "name": "tokenId",
          "type": "uint256"
        },
        {
          "internalType": "address",
          "name": "recipient",
          "type": "address"
        }
      ],
      "name": "listTransfer",
      "outputs": [],
      "stateMutability": "nonpayable",
      "type": "function"
    },
    {
      "inputs": [],
      "name": "maxSupply",
      "outputs": [
        {
          "internalType": "uint256",
          "name": "",
          "type": "uint256"
        }
      ],
      "stateMutability": "view",
      "type": "function"
    },
    {
      "inputs": [
        {
          "components": [
            {
              "internalType": "string",
              "name": "tokenURI",
              "type": "string"
            },
            {
              "internalType": "string",
              "name": "metadataURI",
              "type": "string"
            },
            {
              "internalType": "bytes32",
              "name": "contentHash",
              "type": "bytes32"
            },
            {
              "internalType": "bytes32",
              "name": "metadataHash",
              "type": "bytes32"
            },
            {
              "internalType": "bool",
              "name": "isDefault",
              "type": "bool"
            }
          ],
          "internalType": "struct IAvatar.AvatarData",
          "name": "data",
          "type": "tuple"
        },
        {
          "components": [
            {
              "components": [
                {
                  "internalType": "uint256",
                  "name": "value",
                  "type": "uint256"
                }
              ],
              "internalType": "struct Decimal.D256",
              "name": "prevOwner",
              "type": "tuple"
            },
            {
              "components": [
                {
                  "internalType": "uint256",
                  "name": "value",
                  "type": "uint256"
                }
              ],
              "internalType": "struct Decimal.D256",
              "name": "creator",
              "type": "tuple"
            },
            {
              "components": [
                {
                  "internalType": "uint256",
                  "name": "value",
                  "type": "uint256"
                }
              ],
              "internalType": "struct Decimal.D256",
              "name": "owner",
              "type": "tuple"
            }
          ],
          "internalType": "struct IAvatarExchange.BidShares",
          "name": "bidShares",
          "type": "tuple"
        }
      ],
      "name": "mint",
      "outputs": [],
      "stateMutability": "nonpayable",
      "type": "function"
    },
    {
      "inputs": [],
      "name": "name",
      "outputs": [
        {
          "internalType": "string",
          "name": "",
          "type": "string"
        }
      ],
      "stateMutability": "view",
      "type": "function"
    },
    {
      "inputs": [
        {
          "internalType": "uint256",
          "name": "tokenId",
          "type": "uint256"
        }
      ],
      "name": "ownerOf",
      "outputs": [
        {
          "internalType": "address",
          "name": "",
          "type": "address"
        }
      ],
      "stateMutability": "view",
      "type": "function"
    },
    {
      "inputs": [
        {
          "internalType": "uint256",
          "name": "",
          "type": "uint256"
        }
      ],
      "name": "previousTokenOwners",
      "outputs": [
        {
          "internalType": "address",
          "name": "",
          "type": "address"
        }
      ],
      "stateMutability": "view",
      "type": "function"
    },
    {
      "inputs": [
        {
          "internalType": "uint256",
          "name": "tokenId",
          "type": "uint256"
        }
      ],
      "name": "removeAsk",
      "outputs": [],
      "stateMutability": "nonpayable",
      "type": "function"
    },
    {
      "inputs": [
        {
          "internalType": "uint256",
          "name": "tokenId",
          "type": "uint256"
        }
      ],
      "name": "removeBid",
      "outputs": [],
      "stateMutability": "nonpayable",
      "type": "function"
    },
    {
      "inputs": [
        {
          "internalType": "uint256",
          "name": "tokenId",
          "type": "uint256"
        }
      ],
      "name": "revokeApproval",
      "outputs": [],
      "stateMutability": "nonpayable",
      "type": "function"
    },
    {
      "inputs": [
        {
          "internalType": "address",
          "name": "from",
          "type": "address"
        },
        {
          "internalType": "address",
          "name": "to",
          "type": "address"
        },
        {
          "internalType": "uint256",
          "name": "tokenId",
          "type": "uint256"
        }
      ],
      "name": "safeTransferFrom",
      "outputs": [],
      "stateMutability": "nonpayable",
      "type": "function"
    },
    {
      "inputs": [
        {
          "internalType": "address",
          "name": "from",
          "type": "address"
        },
        {
          "internalType": "address",
          "name": "to",
          "type": "address"
        },
        {
          "internalType": "uint256",
          "name": "tokenId",
          "type": "uint256"
        },
        {
          "internalType": "bytes",
          "name": "_data",
          "type": "bytes"
        }
      ],
      "name": "safeTransferFrom",
      "outputs": [],
      "stateMutability": "nonpayable",
      "type": "function"
    },
    {
      "inputs": [
        {
          "internalType": "address",
          "name": "operator",
          "type": "address"
        },
        {
          "internalType": "bool",
          "name": "approved",
          "type": "bool"
        }
      ],
      "name": "setApprovalForAll",
      "outputs": [],
      "stateMutability": "nonpayable",
      "type": "function"
    },
    {
      "inputs": [
        {
          "internalType": "uint256",
          "name": "tokenId",
          "type": "uint256"
        },
        {
          "components": [
            {
              "internalType": "uint256",
              "name": "amount",
              "type": "uint256"
            },
            {
              "internalType": "address",
              "name": "currency",
              "type": "address"
            }
          ],
          "internalType": "struct IAvatarExchange.Ask",
          "name": "ask",
          "type": "tuple"
        }
      ],
      "name": "setAsk",
      "outputs": [],
      "stateMutability": "nonpayable",
      "type": "function"
    },
    {
      "inputs": [
        {
          "internalType": "uint256",
          "name": "tokenId",
          "type": "uint256"
        },
        {
          "components": [
            {
              "internalType": "uint256",
              "name": "amount",
              "type": "uint256"
            },
            {
              "internalType": "address",
              "name": "currency",
              "type": "address"
            },
            {
              "internalType": "address",
              "name": "bidder",
              "type": "address"
            },
            {
              "internalType": "address",
              "name": "recipient",
              "type": "address"
            },
            {
              "components": [
                {
                  "internalType": "uint256",
                  "name": "value",
                  "type": "uint256"
                }
              ],
              "internalType": "struct Decimal.D256",
              "name": "sellOnShare",
              "type": "tuple"
            }
          ],
          "internalType": "struct IAvatarExchange.Bid",
          "name": "bid",
          "type": "tuple"
        }
      ],
      "name": "setBid",
      "outputs": [],
      "stateMutability": "nonpayable",
      "type": "function"
    },
    {
      "inputs": [
        {
          "internalType": "bytes4",
          "name": "interfaceId",
          "type": "bytes4"
        }
      ],
      "name": "supportsInterface",
      "outputs": [
        {
          "internalType": "bool",
          "name": "",
          "type": "bool"
        }
      ],
      "stateMutability": "view",
      "type": "function"
    },
    {
      "inputs": [],
      "name": "symbol",
      "outputs": [
        {
          "internalType": "string",
          "name": "",
          "type": "string"
        }
      ],
      "stateMutability": "view",
      "type": "function"
    },
    {
      "inputs": [
        {
          "internalType": "uint256",
          "name": "index",
          "type": "uint256"
        }
      ],
      "name": "tokenByIndex",
      "outputs": [
        {
          "internalType": "uint256",
          "name": "",
          "type": "uint256"
        }
      ],
      "stateMutability": "view",
      "type": "function"
    },
    {
      "inputs": [
        {
          "internalType": "uint256",
          "name": "",
          "type": "uint256"
        }
      ],
      "name": "tokenContentHashes",
      "outputs": [
        {
          "internalType": "bytes32",
          "name": "",
          "type": "bytes32"
        }
      ],
      "stateMutability": "view",
      "type": "function"
    },
    {
      "inputs": [
        {
          "internalType": "uint256",
          "name": "",
          "type": "uint256"
        }
      ],
      "name": "tokenCreators",
      "outputs": [
        {
          "internalType": "address",
          "name": "",
          "type": "address"
        }
      ],
      "stateMutability": "view",
      "type": "function"
    },
    {
      "inputs": [
        {
          "internalType": "uint256",
          "name": "tokenId",
          "type": "uint256"
        }
      ],
      "name": "tokenDefault",
      "outputs": [
        {
          "internalType": "bool",
          "name": "",
          "type": "bool"
        }
      ],
      "stateMutability": "view",
      "type": "function"
    },
    {
      "inputs": [
        {
          "internalType": "uint256",
          "name": "",
          "type": "uint256"
        }
      ],
      "name": "tokenMetadataHashes",
      "outputs": [
        {
          "internalType": "bytes32",
          "name": "",
          "type": "bytes32"
        }
      ],
      "stateMutability": "view",
      "type": "function"
    },
    {
      "inputs": [
        {
          "internalType": "uint256",
          "name": "tokenId",
          "type": "uint256"
        }
      ],
      "name": "tokenMetadataURI",
      "outputs": [
        {
          "internalType": "string",
          "name": "",
          "type": "string"
        }
      ],
      "stateMutability": "view",
      "type": "function"
    },
    {
      "inputs": [
        {
          "internalType": "address",
          "name": "owner",
          "type": "address"
        },
        {
          "internalType": "uint256",
          "name": "index",
          "type": "uint256"
        }
      ],
      "name": "tokenOfOwnerByIndex",
      "outputs": [
        {
          "internalType": "uint256",
          "name": "",
          "type": "uint256"
        }
      ],
      "stateMutability": "view",
      "type": "function"
    },
    {
      "inputs": [
        {
          "internalType": "uint256",
          "name": "tokenId",
          "type": "uint256"
        }
      ],
      "name": "tokenURI",
      "outputs": [
        {
          "internalType": "string",
          "name": "",
          "type": "string"
        }
      ],
      "stateMutability": "view",
      "type": "function"
    },
    {
      "inputs": [],
      "name": "totalSupply",
      "outputs": [
        {
          "internalType": "uint256",
          "name": "",
          "type": "uint256"
        }
      ],
      "stateMutability": "view",
      "type": "function"
    },
    {
      "inputs": [
        {
          "internalType": "address",
          "name": "from",
          "type": "address"
        },
        {
          "internalType": "address",
          "name": "to",
          "type": "address"
        },
        {
          "internalType": "uint256",
          "name": "tokenId",
          "type": "uint256"
        }
      ],
      "name": "transferFrom",
      "outputs": [],
      "stateMutability": "nonpayable",
      "type": "function"
    },
    {
      "inputs": [
        {
          "internalType": "uint256",
          "name": "tokenId",
          "type": "uint256"
        },
        {
          "internalType": "bool",
          "name": "isDefault",
          "type": "bool"
        }
      ],
      "name": "updateTokenDefault",
      "outputs": [],
      "stateMutability": "nonpayable",
      "type": "function"
    },
    {
      "inputs": [
        {
          "internalType": "uint256",
          "name": "tokenId",
          "type": "uint256"
        },
        {
          "internalType": "string",
          "name": "metadataURI",
          "type": "string"
        }
      ],
      "name": "updateTokenMetadataURI",
      "outputs": [],
      "stateMutability": "nonpayable",
      "type": "function"
    },
    {
      "inputs": [
        {
          "internalType": "uint256",
          "name": "tokenId",
          "type": "uint256"
        },
        {
          "internalType": "string",
          "name": "tokenURI",
          "type": "string"
        }
      ],
      "name": "updateTokenURI",
      "outputs": [],
      "stateMutability": "nonpayable",
      "type": "function"
    }
  ],
  "bytecode": "0x6080604052620186a06014553480156200001857600080fd5b5060405162003b4138038062003b418339810160408190526200003b9162000234565b604080518082018252600c81526b26b7ba34b31020bb30ba30b960a11b6020808301919091528251808401909352600683526520ab20aa20a960d11b9083015290620000976301ffc9a760e01b6001600160e01b036200013416565b8151620000ac9060069060208501906200018f565b508051620000c29060079060208401906200018f565b50620000de6380ac58cd60e01b6001600160e01b036200013416565b620000f963780e9d6360e01b6001600160e01b036200013416565b50506001600a55600b80546001600160a01b0319166001600160a01b0383161790556200012d634b482c2360e11b62000134565b506200029b565b6001600160e01b031980821614156200016a5760405162461bcd60e51b8152600401620001619062000264565b60405180910390fd5b6001600160e01b0319166000908152602081905260409020805460ff19166001179055565b828054600181600116156101000203166002900490600052602060002090601f016020900481019282601f10620001d257805160ff191683800117855562000202565b8280016001018555821562000202579182015b8281111562000202578251825591602001919060010190620001e5565b506200021092915062000214565b5090565b6200023191905b808211156200021057600081556001016200021b565b90565b60006020828403121562000246578081fd5b81516001600160a01b03811681146200025d578182fd5b9392505050565b6020808252601c908201527f4552433136353a20696e76616c696420696e7465726661636520696400000000604082015260600190565b61389680620002ab6000396000f3fe608060405234801561001057600080fd5b50600436106102775760003560e01c80636352211e11610160578063b320f459116100d8578063d5abeb011161008c578063e985e9c511610071578063e985e9c51461050a578063f4d7e7421461051d578063fad321971461052557610277565b8063d5abeb01146104ef578063e0fd045f146104f757610277565b8063ba339399116100bd578063ba339399146104b6578063c87b56dd146104c9578063c880d45f146104dc57610277565b8063b320f45914610490578063b88d4fde146104a357610277565b806395d89b411161012f5780639d8e7260116101145780639d8e726014610457578063a22cb4651461046a578063b1e130fc1461047d57610277565b806395d89b411461043c5780639afbb6f41461044457610277565b80636352211e146103fb5780636c0360eb1461040e57806370a082311461041657806375682e791461042957610277565b806328220f35116101f357806342842e0e116101c25780634f6ccce7116101a75780634f6ccce7146103c25780635bf62422146103d557806362f24b70146103e857610277565b806342842e0e1461039c57806342966c68146103af57610277565b806328220f35146103505780632f745c59146103635780633169dc181461037657806332f44aa91461038957610277565b8063095ea7b31161024a57806318160ddd1161022f57806318160ddd1461032257806318e97fd11461032a57806323b872dd1461033d57610277565b8063095ea7b3146102fa578063157c3df91461030f57610277565b806301ddc3b51461027c57806301ffc9a7146102a557806306fdde03146102c5578063081812fc146102da575b600080fd5b61028f61028a3660046129a4565b610538565b60405161029c9190612caa565b60405180910390f35b6102b86102b33660046128ac565b61054a565b60405161029c9190612c9f565b6102cd610581565b60405161029c9190612cb3565b6102ed6102e83660046129a4565b610618565b60405161029c9190612bf5565b61030d610308366004612882565b610664565b005b6102cd61031d3660046129a4565b6106fc565b61028f6107c7565b61030d610338366004612a12565b6107d8565b61030d61034b3660046127af565b610937565b61030d61035e3660046129a4565b61096f565b61028f610371366004612882565b610a2b565b61030d6103843660046129df565b610a5c565b61030d6103973660046129bc565b610b29565b61030d6103aa3660046127af565b610bbc565b61030d6103bd3660046129a4565b610bd7565b61028f6103d03660046129a4565b610ca9565b61030d6103e3366004612ade565b610cc5565b61030d6103f6366004612a87565b610d95565b6102ed6104093660046129a4565b610e6d565b6102cd610e9b565b61028f610424366004612760565b610efc565b61030d610437366004612a12565b610f45565b6102cd61108e565b61030d6104523660046128e4565b6110ef565b6102ed6104653660046129a4565b61112b565b61030d610478366004612857565b611146565b61030d61048b3660046129a4565b611214565b61030d61049e3660046129a4565b611288565b61030d6104b13660046127ef565b61135f565b61030d6104c4366004612ade565b61139e565b6102cd6104d73660046129a4565b611439565b6102b86104ea3660046129a4565b611507565b61028f611549565b6102ed6105053660046129a4565b61154f565b6102b861051836600461277b565b61156a565b6102ed611598565b61028f6105333660046129a4565b6115a7565b60106020526000908152604090205481565b7fffffffff000000000000000000000000000000000000000000000000000000001660009081526020819052604090205460ff1690565b60068054604080516020601f600260001961010060018816150201909516949094049384018190048102820181019092528281526060939092909183018282801561060d5780601f106105e25761010080835404028352916020019161060d565b820191906000526020600020905b8154815290600101906020018083116105f057829003601f168201915b505050505090505b90565b6000610623826115b9565b6106485760405162461bcd60e51b815260040161063f90613249565b60405180910390fd5b506000908152600460205260409020546001600160a01b031690565b600061066f82610e6d565b9050806001600160a01b0316836001600160a01b031614156106a35760405162461bcd60e51b815260040161063f906134e9565b806001600160a01b03166106b56115cc565b6001600160a01b031614806106d157506106d1816105186115cc565b6106ed5760405162461bcd60e51b815260040161063f90613118565b6106f783836115d0565b505050565b6060818061070a601561164b565b116107275760405162461bcd60e51b815260040161063f90612d08565b60008381526011602090815260409182902080548351601f6002600019610100600186161502019093169290920491820184900484028101840190945280845290918301828280156107ba5780601f1061078f576101008083540402835291602001916107ba565b820191906000526020600020905b81548152906001019060200180831161079d57829003601f168201915b5050505050915050919050565b60006107d3600261164f565b905090565b6002600a5414156107fb5760405162461bcd60e51b815260040161063f90613637565b6002600a55338361080c828261165a565b6108285760405162461bcd60e51b815260040161063f90612d65565b6000858152600f602052604090205485906108555760405162461bcd60e51b815260040161063f9061342f565b84848080601f016020809104026020016040519081016040528093929190818152602001838380828437600092019190915250508251151591506108ad90505760405162461bcd60e51b815260040161063f906135da565b6108ed8787878080601f0160208091040260200160405190810160405280939291908181526020018383808284376000920191909152506116df92505050565b867f702fe2dc2dc0f68023540aa4a1e11811c0f29112f6ebf01e61b90538e4f2981033888860405161092193929190612c60565b60405180910390a250506001600a555050505050565b6109486109426115cc565b8261165a565b6109645760405162461bcd60e51b815260040161063f90613546565b6106f7838383611723565b6002600a5414156109925760405162461bcd60e51b815260040161063f90613637565b6002600a5533816109a3828261165a565b6109bf5760405162461bcd60e51b815260040161063f90612d65565b600b546040516328220f3560e01b81526001600160a01b03909116906328220f35906109ef908690600401612caa565b600060405180830381600087803b158015610a0957600080fd5b505af1158015610a1d573d6000803e3d6000fd5b50506001600a555050505050565b6001600160a01b0382166000908152600160205260408120610a53908363ffffffff61179016565b90505b92915050565b6002600a541415610a7f5760405162461bcd60e51b815260040161063f90613637565b6002600a553382610a90828261165a565b610aac5760405162461bcd60e51b815260040161063f90612d65565b6000848152601060205260409020548490610ad95760405162461bcd60e51b815260040161063f90612e8d565b610ae3858561179c565b847fe243a6116a05f716d8a095fee23c4c5c47cf8f86510572d6460a7de615c453ba3386604051610b15929190612c45565b60405180910390a250506001600a55505050565b600b546001600160a01b03163314610b535760405162461bcd60e51b815260040161063f90612d9c565b610b5c82610e6d565b6000838152600c60205260409020805473ffffffffffffffffffffffffffffffffffffffff19166001600160a01b0392909216919091179055610bb8610ba183610e6d565b8284604051806020016040528060008152506117e3565b5050565b6106f78383836040518060200160405280600081525061135f565b6002600a541415610bfa5760405162461bcd60e51b815260040161063f90613637565b6002600a5580610c09816115b9565b610c255760405162461bcd60e51b815260040161063f906132e1565b3382610c31828261165a565b610c4d5760405162461bcd60e51b815260040161063f90612d65565b6000610c5885610e6d565b6000868152600d60205260409020549091506001600160a01b03808316911614610c945760405162461bcd60e51b815260040161063f9061366e565b610c9d85611816565b50506001600a55505050565b600080610cbd60028463ffffffff61190f16565b509392505050565b6002600a541415610ce85760405162461bcd60e51b815260040161063f90613637565b6002600a5581610cf7816115b9565b610d135760405162461bcd60e51b815260040161063f906132e1565b81604001516001600160a01b0316336001600160a01b031614610d485760405162461bcd60e51b815260040161063f90613375565b600b546040517fbdb586980000000000000000000000000000000000000000000000000000000081526001600160a01b039091169063bdb58698906109ef90869086903390600401613744565b6002600a541415610db85760405162461bcd60e51b815260040161063f90613637565b6002600a553382610dc9828261165a565b610de55760405162461bcd60e51b815260040161063f90612d65565b600b546040517f62f24b700000000000000000000000000000000000000000000000000000000081526001600160a01b03909116906362f24b7090610e3090879087906004016136e2565b600060405180830381600087803b158015610e4a57600080fd5b505af1158015610e5e573d6000803e3d6000fd5b50506001600a55505050505050565b6000610a5682604051806060016040528060298152602001613838602991396002919063ffffffff61192b16565b60098054604080516020601f600260001961010060018816150201909516949094049384018190048102820181019092528281526060939092909183018282801561060d5780601f106105e25761010080835404028352916020019161060d565b60006001600160a01b038216610f245760405162461bcd60e51b815260040161063f90613175565b6001600160a01b0382166000908152600160205260409020610a569061164f565b6002600a541415610f685760405162461bcd60e51b815260040161063f90613637565b6002600a553383610f79828261165a565b610f955760405162461bcd60e51b815260040161063f90612d65565b6000858152601060205260409020548590610fc25760405162461bcd60e51b815260040161063f90612e8d565b84848080601f0160208091040260200160405190810160405280939291908181526020018383808284376000920191909152505082511515915061101a90505760405162461bcd60e51b815260040161063f906135da565b61105a8787878080601f01602080910402602001604051908101604052809392919081815260200183838082843760009201919091525061194292505050565b867fe3df41127db820c79e5b8d541a63e40e3e97b9af96f7a50bded13091b70df9ae33888860405161092193929190612c60565b60078054604080516020601f600260001961010060018816150201909516949094049384018190048102820181019092528281526060939092909183018282801561060d5780601f106105e25761010080835404028352916020019161060d565b6002600a5414156111125760405162461bcd60e51b815260040161063f90613637565b6002600a55611122338383611987565b50506001600a55565b600c602052600090815260409020546001600160a01b031681565b61114e6115cc565b6001600160a01b0316826001600160a01b0316141561117f5760405162461bcd60e51b815260040161063f90612f47565b806005600061118c6115cc565b6001600160a01b03908116825260208083019390935260409182016000908120918716808252919093529120805460ff1916921515929092179091556111d06115cc565b6001600160a01b03167f17307eab39ab6107e8899845ad3d59bd9653f200f220920489ca2b5937696c31836040516112089190612c9f565b60405180910390a35050565b6002600a5414156112375760405162461bcd60e51b815260040161063f90613637565b6002600a5561124581610618565b6001600160a01b0316336001600160a01b0316146112755760405162461bcd60e51b815260040161063f906133d2565b6112806000826115d0565b506001600a55565b6002600a5414156112ab5760405162461bcd60e51b815260040161063f90613637565b6002600a5580806112bc601561164b565b116112d95760405162461bcd60e51b815260040161063f90612d08565b600b546040517f776a08350000000000000000000000000000000000000000000000000000000081526001600160a01b039091169063776a08359061132490859033906004016136cb565b600060405180830381600087803b15801561133e57600080fd5b505af1158015611352573d6000803e3d6000fd5b50506001600a5550505050565b61137061136a6115cc565b8361165a565b61138c5760405162461bcd60e51b815260040161063f90613546565b611398848484846117e3565b50505050565b6002600a5414156113c15760405162461bcd60e51b815260040161063f90613637565b6002600a5533826113d2828261165a565b6113ee5760405162461bcd60e51b815260040161063f90612d65565b600b546040517fba3393990000000000000000000000000000000000000000000000000000000081526001600160a01b039091169063ba33939990610e309087908790600401613730565b60608180611447601561164b565b116114645760405162461bcd60e51b815260040161063f90612d08565b60008381526008602090815260409182902080548351601f60026000196101006001861615020190931692909204918201849004840281018401909452808452606093928301828280156114f95780601f106114ce576101008083540402835291602001916114f9565b820191906000526020600020905b8154815290600101906020018083116114dc57829003601f168201915b509398975050505050505050565b60008180611515601561164b565b116115325760405162461bcd60e51b815260040161063f90612d08565b505060009081526012602052604090205460ff1690565b60145481565b600d602052600090815260409020546001600160a01b031681565b6001600160a01b03918216600090815260056020908152604080832093909416825291909152205460ff1690565b600b546001600160a01b031681565b600f6020526000908152604090205481565b6000610a5660028363ffffffff611bd916565b3390565b6000818152600460205260409020805473ffffffffffffffffffffffffffffffffffffffff19166001600160a01b038416908117909155819061161282610e6d565b6001600160a01b03167f8c5be1e5ebec7d5bd14f71427d1e84f3dd0314c0f7b2291e5b200ac8c7c3b92560405160405180910390a45050565b5490565b6000610a568261164b565b6000611665826115b9565b6116815760405162461bcd60e51b815260040161063f90613038565b600061168c83610e6d565b9050806001600160a01b0316846001600160a01b031614806116c75750836001600160a01b03166116bc84610618565b6001600160a01b0316145b806116d757506116d7818561156a565b949350505050565b6116e8826115b9565b6117045760405162461bcd60e51b815260040161063f90613295565b600082815260086020908152604090912082516106f792840190612579565b600b546040516328220f3560e01b81526001600160a01b03909116906328220f3590611753908490600401612caa565b600060405180830381600087803b15801561176d57600080fd5b505af1158015611781573d6000803e3d6000fd5b505050506106f7838383611be5565b6000610a538383611d05565b816117a6816115b9565b6117c25760405162461bcd60e51b815260040161063f906132e1565b50600091825260126020526040909120805460ff1916911515919091179055565b6117ee848484611723565b6117fa84848484611d4a565b6113985760405162461bcd60e51b815260040161063f90612df9565b60008181526008602090815260409182902080548351601f60026000196101006001861615020190931692909204918201849004840281018401909452808452606093928301828280156118ab5780601f10611880576101008083540402835291602001916118ab565b820191906000526020600020905b81548152906001019060200180831161188e57829003601f168201915b505050505090506118bb82611e71565b8051156118e357600082815260086020908152604090912082516118e192840190612579565b505b506000908152600c60205260409020805473ffffffffffffffffffffffffffffffffffffffff19169055565b600080808061191e8686611f4a565b9097909650945050505050565b6000611938848484611fa6565b90505b9392505050565b8161194c816115b9565b6119685760405162461bcd60e51b815260040161063f906132e1565b6000838152601160209081526040909120835161139892850190612579565b815180516119a75760405162461bcd60e51b815260040161063f906135da565b602083015180516119ca5760405162461bcd60e51b815260040161063f906135da565b6014546119d56107c7565b106119f25760405162461bcd60e51b815260040161063f90613084565b6040840151611a135760405162461bcd60e51b815260040161063f906130bb565b60408085015160009081526013602052205460ff1615611a455760405162461bcd60e51b815260040161063f9061348c565b6060840151611a665760405162461bcd60e51b815260040161063f90612fdb565b6000611a72601561164b565b9050611a7e8682612005565b611a88601561201f565b611a96818660400151612028565b611aa4818660600151612061565b611ab2818660200151611942565b611ac081866080015161179c565b611ace8186600001516116df565b6001600160a01b0386166000908152600e60205260409020611af6908263ffffffff61209a16565b50604080860151600090815260136020908152828220805460ff19166001179055838252600d815282822080546001600160a01b03808c1673ffffffffffffffffffffffffffffffffffffffff199283168117909355600c90935292849020805490931617909155600b5491517feb55683a00000000000000000000000000000000000000000000000000000000815291169063eb55683a90611b9f9084908890600401613706565b600060405180830381600087803b158015611bb957600080fd5b505af1158015611bcd573d6000803e3d6000fd5b50505050505050505050565b6000610a5383836120a6565b826001600160a01b0316611bf882610e6d565b6001600160a01b031614611c1e5760405162461bcd60e51b815260040161063f90613318565b6001600160a01b038216611c445760405162461bcd60e51b815260040161063f90612eea565b611c4f8383836106f7565b611c5a6000826115d0565b6001600160a01b0383166000908152600160205260409020611c82908263ffffffff6120be16565b506001600160a01b0382166000908152600160205260409020611cab908263ffffffff61209a16565b50611cbe6002828463ffffffff6120ca16565b5080826001600160a01b0316846001600160a01b03167fddf252ad1be2c89b69c2b068fc378daa952ba7f163c4a11628f55a4df523b3ef60405160405180910390a4505050565b81546000908210611d285760405162461bcd60e51b815260040161063f90612cc6565b826000018281548110611d3757fe5b9060005260206000200154905092915050565b6000611d5e846001600160a01b03166120e0565b611d6a575060016116d7565b6060611e22630a85bd0160e11b611d7f6115cc565b888787604051602401611d959493929190612c09565b604051602081830303815290604052907bffffffffffffffffffffffffffffffffffffffffffffffffffffffff19166020820180517bffffffffffffffffffffffffffffffffffffffffffffffffffffffff8381831617835250505050604051806060016040528060328152602001613806603291396001600160a01b038816919063ffffffff6120e616565b9050600081806020019051810190611e3a91906128c8565b7fffffffff0000000000000000000000000000000000000000000000000000000016630a85bd0160e11b1492505050949350505050565b6000611e7c82610e6d565b9050611e8a816000846106f7565b611e956000836115d0565b6000828152600860205260409020546002600019610100600184161502019091160415611ed3576000828152600860205260408120611ed3916125f7565b6001600160a01b0381166000908152600160205260409020611efb908363ffffffff6120be16565b50611f0d60028363ffffffff6120f516565b5060405182906000906001600160a01b038416907fddf252ad1be2c89b69c2b068fc378daa952ba7f163c4a11628f55a4df523b3ef908390a45050565b815460009081908310611f6f5760405162461bcd60e51b815260040161063f906131d2565b6000846000018481548110611f8057fe5b906000526020600020906002020190508060000154816001015492509250509250929050565b60008281526001840160205260408120548281611fd65760405162461bcd60e51b815260040161063f9190612cb3565b50846000016001820381548110611fe957fe5b9060005260206000209060020201600101549150509392505050565b610bb8828260405180602001604052806000815250612101565b80546001019055565b81612032816115b9565b61204e5760405162461bcd60e51b815260040161063f906132e1565b506000918252600f602052604090912055565b8161206b816115b9565b6120875760405162461bcd60e51b815260040161063f906132e1565b5060009182526010602052604090912055565b6000610a538383612134565b60009081526001919091016020526040902054151590565b6000610a53838361217e565b600061193884846001600160a01b038516612244565b3b151590565b606061193884846000856122db565b6000610a53838361239c565b61210b8383612470565b6121186000848484611d4a565b6106f75760405162461bcd60e51b815260040161063f90612df9565b600061214083836120a6565b61217657508154600181810184556000848152602080822090930184905584548482528286019093526040902091909155610a56565b506000610a56565b6000818152600183016020526040812054801561223a57835460001980830191908101906000908790839081106121b157fe5b90600052602060002001549050808760000184815481106121ce57fe5b6000918252602080832090910192909255828152600189810190925260409020908401905586548790806121fe57fe5b60019003818190600052602060002001600090559055866001016000878152602001908152602001600020600090556001945050505050610a56565b6000915050610a56565b6000828152600184016020526040812054806122a957505060408051808201825283815260208082018481528654600181810189556000898152848120955160029093029095019182559151908201558654868452818801909252929091205561193b565b828560000160018303815481106122bc57fe5b906000526020600020906002020160010181905550600091505061193b565b6060824710156122fd5760405162461bcd60e51b815260040161063f90612f7e565b612306856120e0565b6123225760405162461bcd60e51b815260040161063f906135a3565b60006060866001600160a01b0316858760405161233f9190612bd9565b60006040518083038185875af1925050503d806000811461237c576040519150601f19603f3d011682016040523d82523d6000602084013e612381565b606091505b5091509150612391828286612540565b979650505050505050565b6000818152600183016020526040812054801561223a57835460001980830191908101906000908790839081106123cf57fe5b90600052602060002090600202019050808760000184815481106123ef57fe5b60009182526020808320845460029093020191825560019384015491840191909155835482528983019052604090209084019055865487908061242e57fe5b6000828152602080822060026000199094019384020182815560019081018390559290935588815289820190925260408220919091559450610a569350505050565b6001600160a01b0382166124965760405162461bcd60e51b815260040161063f90613214565b61249f816115b9565b156124bc5760405162461bcd60e51b815260040161063f90612e56565b6124c8600083836106f7565b6001600160a01b03821660009081526001602052604090206124f0908263ffffffff61209a16565b506125036002828463ffffffff6120ca16565b5060405181906001600160a01b038416906000907fddf252ad1be2c89b69c2b068fc378daa952ba7f163c4a11628f55a4df523b3ef908290a45050565b6060831561254f57508161193b565b82511561255f5782518084602001fd5b8160405162461bcd60e51b815260040161063f9190612cb3565b828054600181600116156101000203166002900490600052602060002090601f016020900481019282601f106125ba57805160ff19168380011785556125e7565b828001600101855582156125e7579182015b828111156125e75782518255916020019190600101906125cc565b506125f392915061263e565b5090565b50805460018160011615610100020316600290046000825580601f1061261d575061263b565b601f01602090049060005260206000209081019061263b919061263e565b50565b61061591905b808211156125f35760008155600101612644565b80356001600160a01b0381168114610a5657600080fd5b80358015158114610a5657600080fd5b600082601f83011261268f578081fd5b813567ffffffffffffffff8111156126a5578182fd5b6126b8601f8201601f191660200161376f565b91508082528360208285010111156126cf57600080fd5b8060208401602084013760009082016020015292915050565b6000606082840312156126f9578081fd5b612703606061376f565b905061270f838361273b565b815261271e836020840161273b565b6020820152612730836040840161273b565b604082015292915050565b60006020828403121561274c578081fd5b612756602061376f565b9135825250919050565b600060208284031215612771578081fd5b610a538383612658565b6000806040838503121561278d578081fd5b6127978484612658565b91506127a68460208501612658565b90509250929050565b6000806000606084860312156127c3578081fd5b83356127ce816137c2565b925060208401356127de816137c2565b929592945050506040919091013590565b60008060008060808587031215612804578081fd5b61280e8686612658565b935061281d8660208701612658565b925060408501359150606085013567ffffffffffffffff81111561283f578182fd5b61284b8782880161267f565b91505092959194509250565b60008060408385031215612869578182fd5b6128738484612658565b91506127a6846020850161266f565b60008060408385031215612894578182fd5b61289e8484612658565b946020939093013593505050565b6000602082840312156128bd578081fd5b813561193b816137d7565b6000602082840312156128d9578081fd5b815161193b816137d7565b600080608083850312156128f6578182fd5b823567ffffffffffffffff8082111561290d578384fd5b81850160a0818803121561291f578485fd5b61292960a061376f565b9250803582811115612939578586fd5b6129458882840161267f565b845250602081013582811115612959578586fd5b6129658882840161267f565b602085015250604081013560408401526060810135606084015261298c876080830161266f565b60808401525050809250506127a684602085016126e8565b6000602082840312156129b5578081fd5b5035919050565b600080604083850312156129ce578182fd5b823591506127a68460208501612658565b600080604083850312156129f1578182fd5b8235915060208301358015158114612a07578182fd5b809150509250929050565b600080600060408486031215612a26578081fd5b83359250602084013567ffffffffffffffff80821115612a44578283fd5b81860187601f820112612a55578384fd5b8035925081831115612a65578384fd5b876020848301011115612a76578384fd5b949760209095019650909450505050565b6000808284036060811215612a9a578283fd5b833592506040601f1982011215612aaf578182fd5b50612aba604061376f565b60208401358152612ace8560408601612658565b6020820152809150509250929050565b60008082840360c0811215612af1578283fd5b8335925060a0601f1982011215612b06578182fd5b50612b1160a061376f565b60208401358152612b258560408601612658565b6020820152612b378560608601612658565b6040820152612b498560808601612658565b6060820152612b5b8560a0860161273b565b6080820152809150509250929050565b60008151808452612b83816020860160208601613796565b601f01601f19169290920160200192915050565b8051825260208101516001600160a01b038082166020850152806040840151166040850152806060840151166060850152505060808101515160808301525050565b60008251612beb818460208701613796565b9190910192915050565b6001600160a01b0391909116815260200190565b60006001600160a01b03808716835280861660208401525083604083015260806060830152612c3b6080830184612b6b565b9695505050505050565b6001600160a01b039290921682521515602082015260400190565b60006001600160a01b03851682526040602083015282604083015282846060840137818301606090810191909152601f909201601f1916010192915050565b901515815260200190565b90815260200190565b600060208252610a536020830184612b6b565b60208082526022908201527f456e756d657261626c655365743a20696e646578206f7574206f6620626f756e604082015261647360f01b606082015260800190565b60208082526029908201527f4176617461723a20746f6b656e2077697468207468617420696420646f65732060408201527f6e6f742065786973740000000000000000000000000000000000000000000000606082015260800190565b6020808252601e908201527f4176617461723a204f6e6c7920617070726f766564206f72206f776e65720000604082015260600190565b60208082526024908201527f4176617461723a206f6e6c792061766174617245786368616e676520636f6e7460408201527f7261637400000000000000000000000000000000000000000000000000000000606082015260800190565b60208082526032908201527f4552433732313a207472616e7366657220746f206e6f6e20455243373231526560408201527f63656976657220696d706c656d656e7465720000000000000000000000000000606082015260800190565b6020808252601c908201527f4552433732313a20746f6b656e20616c7265616479206d696e74656400000000604082015260600190565b60208082526030908201527f4176617461723a20746f6b656e20646f6573206e6f742068617665206861736860408201527f206f6620697473206d6574616461746100000000000000000000000000000000606082015260800190565b60208082526024908201527f4552433732313a207472616e7366657220746f20746865207a65726f2061646460408201527f7265737300000000000000000000000000000000000000000000000000000000606082015260800190565b60208082526019908201527f4552433732313a20617070726f766520746f2063616c6c657200000000000000604082015260600190565b60208082526026908201527f416464726573733a20696e73756666696369656e742062616c616e636520666f60408201527f722063616c6c0000000000000000000000000000000000000000000000000000606082015260800190565b60208082526026908201527f4176617461723a206d657461646174612068617368206d757374206265206e6f60408201527f6e2d7a65726f0000000000000000000000000000000000000000000000000000606082015260800190565b6020808252602c908201527f4552433732313a206f70657261746f7220717565727920666f72206e6f6e657860408201526b34b9ba32b73a103a37b5b2b760a11b606082015260800190565b60208082526015908201527f4c616e643a20737570706c79206465706c657465640000000000000000000000604082015260600190565b60208082526025908201527f4176617461723a20636f6e74656e742068617368206d757374206265206e6f6e60408201527f2d7a65726f000000000000000000000000000000000000000000000000000000606082015260800190565b60208082526038908201527f4552433732313a20617070726f76652063616c6c6572206973206e6f74206f7760408201527f6e6572206e6f7220617070726f76656420666f7220616c6c0000000000000000606082015260800190565b6020808252602a908201527f4552433732313a2062616c616e636520717565727920666f7220746865207a6560408201527f726f206164647265737300000000000000000000000000000000000000000000606082015260800190565b60208082526022908201527f456e756d657261626c654d61703a20696e646578206f7574206f6620626f756e604082015261647360f01b606082015260800190565b6020808252818101527f4552433732313a206d696e7420746f20746865207a65726f2061646472657373604082015260600190565b6020808252602c908201527f4552433732313a20617070726f76656420717565727920666f72206e6f6e657860408201526b34b9ba32b73a103a37b5b2b760a11b606082015260800190565b6020808252602c908201527f4552433732314d657461646174613a2055524920736574206f66206e6f6e657860408201526b34b9ba32b73a103a37b5b2b760a11b606082015260800190565b60208082526019908201527f4176617461723a206e6f6e6578697374656e7420746f6b656e00000000000000604082015260600190565b60208082526029908201527f4552433732313a207472616e73666572206f6620746f6b656e2074686174206960408201527f73206e6f74206f776e0000000000000000000000000000000000000000000000606082015260800190565b60208082526029908201527f41766174617245786368616e67653a20426964646572206d757374206265206d60408201527f73672073656e6465720000000000000000000000000000000000000000000000606082015260800190565b60208082526023908201527f4176617461723a2063616c6c6572206e6f7420617070726f766564206164647260408201527f6573730000000000000000000000000000000000000000000000000000000000606082015260800190565b60208082526033908201527f4176617461723a20746f6b656e20646f6573206e6f742068617665206861736860408201527f206f66206372656174656420636f6e74656e7400000000000000000000000000606082015260800190565b6020808252603f908201527f4176617461723a206120746f6b656e2068617320616c7265616479206265656e60408201527f20637265617465642077697468207468697320636f6e74656e74206861736800606082015260800190565b60208082526021908201527f4552433732313a20617070726f76616c20746f2063757272656e74206f776e6560408201527f7200000000000000000000000000000000000000000000000000000000000000606082015260800190565b60208082526031908201527f4552433732313a207472616e736665722063616c6c6572206973206e6f74206f60408201527f776e6572206e6f7220617070726f766564000000000000000000000000000000606082015260800190565b6020808252601d908201527f416464726573733a2063616c6c20746f206e6f6e2d636f6e7472616374000000604082015260600190565b60208082526027908201527f4176617461723a2073706563696669656420757269206d757374206265206e6f60408201527f6e2d656d70747900000000000000000000000000000000000000000000000000606082015260800190565b6020808252601f908201527f5265656e7472616e637947756172643a207265656e7472616e742063616c6c00604082015260600190565b60208082526026908201527f4176617461723a206f776e6572206973206e6f742063726561746f72206f662060408201527f6176617461720000000000000000000000000000000000000000000000000000606082015260800190565b9182526001600160a01b0316602082015260400190565b918252805160208084019190915201516001600160a01b0316604082015260600190565b91825280515160208084019190915281015151604080840191909152015151606082015260800190565b82815260c0810161193b6020830184612b97565b83815260e081016137586020830185612b97565b6001600160a01b03831660c0830152949350505050565b60405181810167ffffffffffffffff8111828210171561378e57600080fd5b604052919050565b60005b838110156137b1578181015183820152602001613799565b838111156113985750506000910152565b6001600160a01b038116811461263b57600080fd5b7fffffffff000000000000000000000000000000000000000000000000000000008116811461263b57600080fdfe4552433732313a207472616e7366657220746f206e6f6e20455243373231526563656976657220696d706c656d656e7465724552433732313a206f776e657220717565727920666f72206e6f6e6578697374656e7420746f6b656ea2646970667358221220f7145bfba9ca7ded02306d9e2f0a2f3d3bf34eccf22f455e8bcae35f736ef17d64736f6c63430006080033",
  "linkReferences": {},
  "deployedLinkReferences": {}
}