{
  "_format": "hh-sol-artifact-1",
  "contractName": "Avatar",
  "sourceName": "contracts/Avatar.sol",
  "abi": [
    {
      "inputs": [
        {
          "internalType": "address",
          "name": "avatarExchangeContractAddr",
          "type": "address"
        }
      ],
      "stateMutability": "nonpayable",
      "type": "constructor"
    },
    {
      "anonymous": false,
      "inputs": [
        {
          "indexed": true,
          "internalType": "address",
          "name": "owner",
          "type": "address"
        },
        {
          "indexed": true,
          "internalType": "address",
          "name": "approved",
          "type": "address"
        },
        {
          "indexed": true,
          "internalType": "uint256",
          "name": "tokenId",
          "type": "uint256"
        }
      ],
      "name": "Approval",
      "type": "event"
    },
    {
      "anonymous": false,
      "inputs": [
        {
          "indexed": true,
          "internalType": "address",
          "name": "owner",
          "type": "address"
        },
        {
          "indexed": true,
          "internalType": "address",
          "name": "operator",
          "type": "address"
        },
        {
          "indexed": false,
          "internalType": "bool",
          "name": "approved",
          "type": "bool"
        }
      ],
      "name": "ApprovalForAll",
      "type": "event"
    },
    {
      "anonymous": false,
      "inputs": [
        {
          "indexed": true,
          "internalType": "uint256",
          "name": "_tokenId",
          "type": "uint256"
        },
        {
          "indexed": false,
          "internalType": "address",
          "name": "owner",
          "type": "address"
        },
        {
          "indexed": false,
          "internalType": "string",
          "name": "_uri",
          "type": "string"
        }
      ],
      "name": "TokenMetadataURIUpdated",
      "type": "event"
    },
    {
      "anonymous": false,
      "inputs": [
        {
          "indexed": true,
          "internalType": "uint256",
          "name": "_tokenId",
          "type": "uint256"
        },
        {
          "indexed": false,
          "internalType": "address",
          "name": "owner",
          "type": "address"
        },
        {
          "indexed": false,
          "internalType": "string",
          "name": "_uri",
          "type": "string"
        }
      ],
      "name": "TokenURIUpdated",
      "type": "event"
    },
    {
      "anonymous": false,
      "inputs": [
        {
          "indexed": true,
          "internalType": "address",
          "name": "from",
          "type": "address"
        },
        {
          "indexed": true,
          "internalType": "address",
          "name": "to",
          "type": "address"
        },
        {
          "indexed": true,
          "internalType": "uint256",
          "name": "tokenId",
          "type": "uint256"
        }
      ],
      "name": "Transfer",
      "type": "event"
    },
    {
      "inputs": [
        {
          "internalType": "uint256",
          "name": "tokenId",
          "type": "uint256"
        },
        {
          "components": [
            {
              "internalType": "uint256",
              "name": "amount",
              "type": "uint256"
            },
            {
              "internalType": "address",
              "name": "currency",
              "type": "address"
            },
            {
              "internalType": "address",
              "name": "bidder",
              "type": "address"
            },
            {
              "internalType": "address",
              "name": "recipient",
              "type": "address"
            },
            {
              "components": [
                {
                  "internalType": "uint256",
                  "name": "value",
                  "type": "uint256"
                }
              ],
              "internalType": "struct Decimal.D256",
              "name": "sellOnShare",
              "type": "tuple"
            }
          ],
          "internalType": "struct IAvatarExchange.Bid",
          "name": "bid",
          "type": "tuple"
        }
      ],
      "name": "acceptBid",
      "outputs": [],
      "stateMutability": "nonpayable",
      "type": "function"
    },
    {
      "inputs": [
        {
          "internalType": "address",
          "name": "to",
          "type": "address"
        },
        {
          "internalType": "uint256",
          "name": "tokenId",
          "type": "uint256"
        }
      ],
      "name": "approve",
      "outputs": [],
      "stateMutability": "nonpayable",
      "type": "function"
    },
    {
      "inputs": [],
      "name": "avatarExchangeContract",
      "outputs": [
        {
          "internalType": "address",
          "name": "",
          "type": "address"
        }
      ],
      "stateMutability": "view",
      "type": "function"
    },
    {
      "inputs": [
        {
          "internalType": "address",
          "name": "owner",
          "type": "address"
        }
      ],
      "name": "balanceOf",
      "outputs": [
        {
          "internalType": "uint256",
          "name": "",
          "type": "uint256"
        }
      ],
      "stateMutability": "view",
      "type": "function"
    },
    {
      "inputs": [],
      "name": "baseURI",
      "outputs": [
        {
          "internalType": "string",
          "name": "",
          "type": "string"
        }
      ],
      "stateMutability": "view",
      "type": "function"
    },
    {
      "inputs": [
        {
          "internalType": "uint256",
          "name": "tokenId",
          "type": "uint256"
        }
      ],
      "name": "burn",
      "outputs": [],
      "stateMutability": "nonpayable",
      "type": "function"
    },
    {
      "inputs": [
        {
          "internalType": "uint256",
          "name": "tokenId",
          "type": "uint256"
        }
      ],
      "name": "getApproved",
      "outputs": [
        {
          "internalType": "address",
          "name": "",
          "type": "address"
        }
      ],
      "stateMutability": "view",
      "type": "function"
    },
    {
      "inputs": [
        {
          "internalType": "address",
          "name": "owner",
          "type": "address"
        },
        {
          "internalType": "address",
          "name": "operator",
          "type": "address"
        }
      ],
      "name": "isApprovedForAll",
      "outputs": [
        {
          "internalType": "bool",
          "name": "",
          "type": "bool"
        }
      ],
      "stateMutability": "view",
      "type": "function"
    },
    {
      "inputs": [
        {
          "internalType": "uint256",
          "name": "tokenId",
          "type": "uint256"
        },
        {
          "internalType": "address",
          "name": "recipient",
          "type": "address"
        }
      ],
      "name": "listTransfer",
      "outputs": [],
      "stateMutability": "nonpayable",
      "type": "function"
    },
    {
      "inputs": [],
      "name": "maxSupply",
      "outputs": [
        {
          "internalType": "uint256",
          "name": "",
          "type": "uint256"
        }
      ],
      "stateMutability": "view",
      "type": "function"
    },
    {
      "inputs": [
        {
          "components": [
            {
              "internalType": "string",
              "name": "tokenURI",
              "type": "string"
            },
            {
              "internalType": "string",
              "name": "metadataURI",
              "type": "string"
            },
            {
              "internalType": "bytes32",
              "name": "contentHash",
              "type": "bytes32"
            },
            {
              "internalType": "bytes32",
              "name": "metadataHash",
              "type": "bytes32"
            }
          ],
          "internalType": "struct IAvatar.AvatarData",
          "name": "data",
          "type": "tuple"
        },
        {
          "components": [
            {
              "components": [
                {
                  "internalType": "uint256",
                  "name": "value",
                  "type": "uint256"
                }
              ],
              "internalType": "struct Decimal.D256",
              "name": "prevOwner",
              "type": "tuple"
            },
            {
              "components": [
                {
                  "internalType": "uint256",
                  "name": "value",
                  "type": "uint256"
                }
              ],
              "internalType": "struct Decimal.D256",
              "name": "creator",
              "type": "tuple"
            },
            {
              "components": [
                {
                  "internalType": "uint256",
                  "name": "value",
                  "type": "uint256"
                }
              ],
              "internalType": "struct Decimal.D256",
              "name": "owner",
              "type": "tuple"
            }
          ],
          "internalType": "struct IAvatarExchange.BidShares",
          "name": "bidShares",
          "type": "tuple"
        }
      ],
      "name": "mint",
      "outputs": [],
      "stateMutability": "nonpayable",
      "type": "function"
    },
    {
      "inputs": [],
      "name": "name",
      "outputs": [
        {
          "internalType": "string",
          "name": "",
          "type": "string"
        }
      ],
      "stateMutability": "view",
      "type": "function"
    },
    {
      "inputs": [
        {
          "internalType": "uint256",
          "name": "tokenId",
          "type": "uint256"
        }
      ],
      "name": "ownerOf",
      "outputs": [
        {
          "internalType": "address",
          "name": "",
          "type": "address"
        }
      ],
      "stateMutability": "view",
      "type": "function"
    },
    {
      "inputs": [
        {
          "internalType": "uint256",
          "name": "",
          "type": "uint256"
        }
      ],
      "name": "previousTokenOwners",
      "outputs": [
        {
          "internalType": "address",
          "name": "",
          "type": "address"
        }
      ],
      "stateMutability": "view",
      "type": "function"
    },
    {
      "inputs": [
        {
          "internalType": "uint256",
          "name": "tokenId",
          "type": "uint256"
        }
      ],
      "name": "removeAsk",
      "outputs": [],
      "stateMutability": "nonpayable",
      "type": "function"
    },
    {
      "inputs": [
        {
          "internalType": "uint256",
          "name": "tokenId",
          "type": "uint256"
        }
      ],
      "name": "removeBid",
      "outputs": [],
      "stateMutability": "nonpayable",
      "type": "function"
    },
    {
      "inputs": [
        {
          "internalType": "uint256",
          "name": "tokenId",
          "type": "uint256"
        }
      ],
      "name": "revokeApproval",
      "outputs": [],
      "stateMutability": "nonpayable",
      "type": "function"
    },
    {
      "inputs": [
        {
          "internalType": "address",
          "name": "from",
          "type": "address"
        },
        {
          "internalType": "address",
          "name": "to",
          "type": "address"
        },
        {
          "internalType": "uint256",
          "name": "tokenId",
          "type": "uint256"
        }
      ],
      "name": "safeTransferFrom",
      "outputs": [],
      "stateMutability": "nonpayable",
      "type": "function"
    },
    {
      "inputs": [
        {
          "internalType": "address",
          "name": "from",
          "type": "address"
        },
        {
          "internalType": "address",
          "name": "to",
          "type": "address"
        },
        {
          "internalType": "uint256",
          "name": "tokenId",
          "type": "uint256"
        },
        {
          "internalType": "bytes",
          "name": "_data",
          "type": "bytes"
        }
      ],
      "name": "safeTransferFrom",
      "outputs": [],
      "stateMutability": "nonpayable",
      "type": "function"
    },
    {
      "inputs": [
        {
          "internalType": "address",
          "name": "operator",
          "type": "address"
        },
        {
          "internalType": "bool",
          "name": "approved",
          "type": "bool"
        }
      ],
      "name": "setApprovalForAll",
      "outputs": [],
      "stateMutability": "nonpayable",
      "type": "function"
    },
    {
      "inputs": [
        {
          "internalType": "uint256",
          "name": "tokenId",
          "type": "uint256"
        },
        {
          "components": [
            {
              "internalType": "uint256",
              "name": "amount",
              "type": "uint256"
            },
            {
              "internalType": "address",
              "name": "currency",
              "type": "address"
            }
          ],
          "internalType": "struct IAvatarExchange.Ask",
          "name": "ask",
          "type": "tuple"
        }
      ],
      "name": "setAsk",
      "outputs": [],
      "stateMutability": "nonpayable",
      "type": "function"
    },
    {
      "inputs": [
        {
          "internalType": "uint256",
          "name": "tokenId",
          "type": "uint256"
        },
        {
          "components": [
            {
              "internalType": "uint256",
              "name": "amount",
              "type": "uint256"
            },
            {
              "internalType": "address",
              "name": "currency",
              "type": "address"
            },
            {
              "internalType": "address",
              "name": "bidder",
              "type": "address"
            },
            {
              "internalType": "address",
              "name": "recipient",
              "type": "address"
            },
            {
              "components": [
                {
                  "internalType": "uint256",
                  "name": "value",
                  "type": "uint256"
                }
              ],
              "internalType": "struct Decimal.D256",
              "name": "sellOnShare",
              "type": "tuple"
            }
          ],
          "internalType": "struct IAvatarExchange.Bid",
          "name": "bid",
          "type": "tuple"
        }
      ],
      "name": "setBid",
      "outputs": [],
      "stateMutability": "nonpayable",
      "type": "function"
    },
    {
      "inputs": [
        {
          "internalType": "bytes4",
          "name": "interfaceId",
          "type": "bytes4"
        }
      ],
      "name": "supportsInterface",
      "outputs": [
        {
          "internalType": "bool",
          "name": "",
          "type": "bool"
        }
      ],
      "stateMutability": "view",
      "type": "function"
    },
    {
      "inputs": [],
      "name": "symbol",
      "outputs": [
        {
          "internalType": "string",
          "name": "",
          "type": "string"
        }
      ],
      "stateMutability": "view",
      "type": "function"
    },
    {
      "inputs": [
        {
          "internalType": "uint256",
          "name": "index",
          "type": "uint256"
        }
      ],
      "name": "tokenByIndex",
      "outputs": [
        {
          "internalType": "uint256",
          "name": "",
          "type": "uint256"
        }
      ],
      "stateMutability": "view",
      "type": "function"
    },
    {
      "inputs": [
        {
          "internalType": "uint256",
          "name": "",
          "type": "uint256"
        }
      ],
      "name": "tokenContentHashes",
      "outputs": [
        {
          "internalType": "bytes32",
          "name": "",
          "type": "bytes32"
        }
      ],
      "stateMutability": "view",
      "type": "function"
    },
    {
      "inputs": [
        {
          "internalType": "uint256",
          "name": "",
          "type": "uint256"
        }
      ],
      "name": "tokenCreators",
      "outputs": [
        {
          "internalType": "address",
          "name": "",
          "type": "address"
        }
      ],
      "stateMutability": "view",
      "type": "function"
    },
    {
      "inputs": [
        {
          "internalType": "uint256",
          "name": "",
          "type": "uint256"
        }
      ],
      "name": "tokenMetadataHashes",
      "outputs": [
        {
          "internalType": "bytes32",
          "name": "",
          "type": "bytes32"
        }
      ],
      "stateMutability": "view",
      "type": "function"
    },
    {
      "inputs": [
        {
          "internalType": "uint256",
          "name": "tokenId",
          "type": "uint256"
        }
      ],
      "name": "tokenMetadataURI",
      "outputs": [
        {
          "internalType": "string",
          "name": "",
          "type": "string"
        }
      ],
      "stateMutability": "view",
      "type": "function"
    },
    {
      "inputs": [
        {
          "internalType": "address",
          "name": "owner",
          "type": "address"
        },
        {
          "internalType": "uint256",
          "name": "index",
          "type": "uint256"
        }
      ],
      "name": "tokenOfOwnerByIndex",
      "outputs": [
        {
          "internalType": "uint256",
          "name": "",
          "type": "uint256"
        }
      ],
      "stateMutability": "view",
      "type": "function"
    },
    {
      "inputs": [
        {
          "internalType": "uint256",
          "name": "tokenId",
          "type": "uint256"
        }
      ],
      "name": "tokenURI",
      "outputs": [
        {
          "internalType": "string",
          "name": "",
          "type": "string"
        }
      ],
      "stateMutability": "view",
      "type": "function"
    },
    {
      "inputs": [],
      "name": "totalSupply",
      "outputs": [
        {
          "internalType": "uint256",
          "name": "",
          "type": "uint256"
        }
      ],
      "stateMutability": "view",
      "type": "function"
    },
    {
      "inputs": [
        {
          "internalType": "address",
          "name": "from",
          "type": "address"
        },
        {
          "internalType": "address",
          "name": "to",
          "type": "address"
        },
        {
          "internalType": "uint256",
          "name": "tokenId",
          "type": "uint256"
        }
      ],
      "name": "transferFrom",
      "outputs": [],
      "stateMutability": "nonpayable",
      "type": "function"
    },
    {
      "inputs": [
        {
          "internalType": "uint256",
          "name": "tokenId",
          "type": "uint256"
        },
        {
          "internalType": "string",
          "name": "metadataURI",
          "type": "string"
        }
      ],
      "name": "updateTokenMetadataURI",
      "outputs": [],
      "stateMutability": "nonpayable",
      "type": "function"
    },
    {
      "inputs": [
        {
          "internalType": "uint256",
          "name": "tokenId",
          "type": "uint256"
        },
        {
          "internalType": "string",
          "name": "tokenURI",
          "type": "string"
        }
      ],
      "name": "updateTokenURI",
      "outputs": [],
      "stateMutability": "nonpayable",
      "type": "function"
    }
  ],
  "bytecode": "0x6080604052620186a06013553480156200001857600080fd5b5060405162003921380380620039218339810160408190526200003b9162000234565b604080518082018252600c81526b26b7ba34b31020bb30ba30b960a11b6020808301919091528251808401909352600683526520ab20aa20a960d11b9083015290620000976301ffc9a760e01b6001600160e01b036200013416565b8151620000ac9060069060208501906200018f565b508051620000c29060079060208401906200018f565b50620000de6380ac58cd60e01b6001600160e01b036200013416565b620000f963780e9d6360e01b6001600160e01b036200013416565b50506001600a55600b80546001600160a01b0319166001600160a01b0383161790556200012d634b482c2360e11b62000134565b506200029b565b6001600160e01b031980821614156200016a5760405162461bcd60e51b8152600401620001619062000264565b60405180910390fd5b6001600160e01b0319166000908152602081905260409020805460ff19166001179055565b828054600181600116156101000203166002900490600052602060002090601f016020900481019282601f10620001d257805160ff191683800117855562000202565b8280016001018555821562000202579182015b8281111562000202578251825591602001919060010190620001e5565b506200021092915062000214565b5090565b6200023191905b808211156200021057600081556001016200021b565b90565b60006020828403121562000246578081fd5b81516001600160a01b03811681146200025d578182fd5b9392505050565b6020808252601c908201527f4552433136353a20696e76616c696420696e7465726661636520696400000000604082015260600190565b61367680620002ab6000396000f3fe608060405234801561001057600080fd5b50600436106102415760003560e01c806362f24b7011610145578063b320f459116100bd578063d5abeb011161008c578063e985e9c511610071578063e985e9c5146104ae578063f4d7e742146104c1578063fad32197146104c957610241565b8063d5abeb0114610493578063e0fd045f1461049b57610241565b8063b320f45914610447578063b88d4fde1461045a578063ba3393991461046d578063c87b56dd1461048057610241565b806375682e79116101145780639d8e7260116100f95780639d8e72601461040e578063a22cb46514610421578063b1e130fc1461043457610241565b806375682e79146103f357806395d89b411461040657610241565b806362f24b70146103b25780636352211e146103c55780636c0360eb146103d857806370a08231146103e057610241565b806323b872dd116101d857806332f44aa9116101a757806342966c681161018c57806342966c68146103795780634f6ccce71461038c5780635bf624221461039f57610241565b806332f44aa91461035357806342842e0e1461036657610241565b806323b872dd1461030757806328220f351461031a5780632cca32371461032d5780632f745c591461034057610241565b8063095ea7b311610214578063095ea7b3146102c4578063157c3df9146102d957806318160ddd146102ec57806318e97fd1146102f457610241565b806301ddc3b51461024657806301ffc9a71461026f57806306fdde031461028f578063081812fc146102a4575b600080fd5b6102596102543660046127d2565b6104dc565b6040516102669190612a8a565b60405180910390f35b61028261027d3660046126ec565b6104ee565b6040516102669190612a7f565b610297610525565b6040516102669190612a93565b6102b76102b23660046127d2565b6105bc565b60405161026691906129f0565b6102d76102d23660046126c2565b610608565b005b6102976102e73660046127d2565b6106a0565b61025961076b565b6102d761030236600461280d565b61077c565b6102d76103153660046125df565b6108db565b6102d76103283660046127d2565b610913565b6102d761033b366004612724565b6109cf565b61025961034e3660046126c2565b610a0b565b6102d76103613660046127ea565b610a3c565b6102d76103743660046125df565b610acf565b6102d76103873660046127d2565b610aea565b61025961039a3660046127d2565b610bbc565b6102d76103ad3660046128d9565b610bd8565b6102d76103c0366004612882565b610ca8565b6102b76103d33660046127d2565b610d80565b610297610dae565b6102596103ee366004612590565b610e0f565b6102d761040136600461280d565b610e58565b610297610fa1565b6102b761041c3660046127d2565b611002565b6102d761042f366004612687565b61101d565b6102d76104423660046127d2565b6110eb565b6102d76104553660046127d2565b61115f565b6102d761046836600461261f565b611236565b6102d761047b3660046128d9565b611275565b61029761048e3660046127d2565b611310565b6102596113de565b6102b76104a93660046127d2565b6113e4565b6102826104bc3660046125ab565b6113ff565b6102b761142d565b6102596104d73660046127d2565b61143c565b60106020526000908152604090205481565b7fffffffff000000000000000000000000000000000000000000000000000000001660009081526020819052604090205460ff1690565b60068054604080516020601f60026000196101006001881615020190951694909404938401819004810282018101909252828152606093909290918301828280156105b15780601f10610586576101008083540402835291602001916105b1565b820191906000526020600020905b81548152906001019060200180831161059457829003601f168201915b505050505090505b90565b60006105c78261144e565b6105ec5760405162461bcd60e51b81526004016105e390613029565b60405180910390fd5b506000908152600460205260409020546001600160a01b031690565b600061061382610d80565b9050806001600160a01b0316836001600160a01b031614156106475760405162461bcd60e51b81526004016105e3906132c9565b806001600160a01b0316610659611461565b6001600160a01b031614806106755750610675816104bc611461565b6106915760405162461bcd60e51b81526004016105e390612ef8565b61069b8383611465565b505050565b606081806106ae60146114e0565b116106cb5760405162461bcd60e51b81526004016105e390612ae8565b60008381526011602090815260409182902080548351601f60026000196101006001861615020190931692909204918201849004840281018401909452808452909183018282801561075e5780601f106107335761010080835404028352916020019161075e565b820191906000526020600020905b81548152906001019060200180831161074157829003601f168201915b5050505050915050919050565b600061077760026114e4565b905090565b6002600a54141561079f5760405162461bcd60e51b81526004016105e390613417565b6002600a5533836107b082826114ef565b6107cc5760405162461bcd60e51b81526004016105e390612b45565b6000858152600f602052604090205485906107f95760405162461bcd60e51b81526004016105e39061320f565b84848080601f0160208091040260200160405190810160405280939291908181526020018383808284376000920191909152505082511515915061085190505760405162461bcd60e51b81526004016105e3906133ba565b6108918787878080601f01602080910402602001604051908101604052809392919081815260200183838082843760009201919091525061157492505050565b867f702fe2dc2dc0f68023540aa4a1e11811c0f29112f6ebf01e61b90538e4f298103388886040516108c593929190612a40565b60405180910390a250506001600a555050505050565b6108ec6108e6611461565b826114ef565b6109085760405162461bcd60e51b81526004016105e390613326565b61069b8383836115b8565b6002600a5414156109365760405162461bcd60e51b81526004016105e390613417565b6002600a55338161094782826114ef565b6109635760405162461bcd60e51b81526004016105e390612b45565b600b546040516328220f3560e01b81526001600160a01b03909116906328220f3590610993908690600401612a8a565b600060405180830381600087803b1580156109ad57600080fd5b505af11580156109c1573d6000803e3d6000fd5b50506001600a555050505050565b6002600a5414156109f25760405162461bcd60e51b81526004016105e390613417565b6002600a55610a02338383611625565b50506001600a55565b6001600160a01b0382166000908152600160205260408120610a33908363ffffffff61186916565b90505b92915050565b600b546001600160a01b03163314610a665760405162461bcd60e51b81526004016105e390612b7c565b610a6f82610d80565b6000838152600c60205260409020805473ffffffffffffffffffffffffffffffffffffffff19166001600160a01b0392909216919091179055610acb610ab483610d80565b828460405180602001604052806000815250611875565b5050565b61069b83838360405180602001604052806000815250611236565b6002600a541415610b0d5760405162461bcd60e51b81526004016105e390613417565b6002600a5580610b1c8161144e565b610b385760405162461bcd60e51b81526004016105e3906130c1565b3382610b4482826114ef565b610b605760405162461bcd60e51b81526004016105e390612b45565b6000610b6b85610d80565b6000868152600d60205260409020549091506001600160a01b03808316911614610ba75760405162461bcd60e51b81526004016105e39061344e565b610bb0856118a8565b50506001600a55505050565b600080610bd060028463ffffffff6119a116565b509392505050565b6002600a541415610bfb5760405162461bcd60e51b81526004016105e390613417565b6002600a5581610c0a8161144e565b610c265760405162461bcd60e51b81526004016105e3906130c1565b81604001516001600160a01b0316336001600160a01b031614610c5b5760405162461bcd60e51b81526004016105e390613155565b600b546040517fbdb586980000000000000000000000000000000000000000000000000000000081526001600160a01b039091169063bdb586989061099390869086903390600401613524565b6002600a541415610ccb5760405162461bcd60e51b81526004016105e390613417565b6002600a553382610cdc82826114ef565b610cf85760405162461bcd60e51b81526004016105e390612b45565b600b546040517f62f24b700000000000000000000000000000000000000000000000000000000081526001600160a01b03909116906362f24b7090610d4390879087906004016134c2565b600060405180830381600087803b158015610d5d57600080fd5b505af1158015610d71573d6000803e3d6000fd5b50506001600a55505050505050565b6000610a3682604051806060016040528060298152602001613618602991396002919063ffffffff6119bd16565b60098054604080516020601f60026000196101006001881615020190951694909404938401819004810282018101909252828152606093909290918301828280156105b15780601f10610586576101008083540402835291602001916105b1565b60006001600160a01b038216610e375760405162461bcd60e51b81526004016105e390612f55565b6001600160a01b0382166000908152600160205260409020610a36906114e4565b6002600a541415610e7b5760405162461bcd60e51b81526004016105e390613417565b6002600a553383610e8c82826114ef565b610ea85760405162461bcd60e51b81526004016105e390612b45565b6000858152601060205260409020548590610ed55760405162461bcd60e51b81526004016105e390612c6d565b84848080601f01602080910402602001604051908101604052809392919081815260200183838082843760009201919091525050825115159150610f2d90505760405162461bcd60e51b81526004016105e3906133ba565b610f6d8787878080601f0160208091040260200160405190810160405280939291908181526020018383808284376000920191909152506119d492505050565b867fe3df41127db820c79e5b8d541a63e40e3e97b9af96f7a50bded13091b70df9ae3388886040516108c593929190612a40565b60078054604080516020601f60026000196101006001881615020190951694909404938401819004810282018101909252828152606093909290918301828280156105b15780601f10610586576101008083540402835291602001916105b1565b600c602052600090815260409020546001600160a01b031681565b611025611461565b6001600160a01b0316826001600160a01b031614156110565760405162461bcd60e51b81526004016105e390612d27565b8060056000611063611461565b6001600160a01b03908116825260208083019390935260409182016000908120918716808252919093529120805460ff1916921515929092179091556110a7611461565b6001600160a01b03167f17307eab39ab6107e8899845ad3d59bd9653f200f220920489ca2b5937696c31836040516110df9190612a7f565b60405180910390a35050565b6002600a54141561110e5760405162461bcd60e51b81526004016105e390613417565b6002600a5561111c816105bc565b6001600160a01b0316336001600160a01b03161461114c5760405162461bcd60e51b81526004016105e3906131b2565b611157600082611465565b506001600a55565b6002600a5414156111825760405162461bcd60e51b81526004016105e390613417565b6002600a55808061119360146114e0565b116111b05760405162461bcd60e51b81526004016105e390612ae8565b600b546040517f776a08350000000000000000000000000000000000000000000000000000000081526001600160a01b039091169063776a0835906111fb90859033906004016134ab565b600060405180830381600087803b15801561121557600080fd5b505af1158015611229573d6000803e3d6000fd5b50506001600a5550505050565b611247611241611461565b836114ef565b6112635760405162461bcd60e51b81526004016105e390613326565b61126f84848484611875565b50505050565b6002600a5414156112985760405162461bcd60e51b81526004016105e390613417565b6002600a5533826112a982826114ef565b6112c55760405162461bcd60e51b81526004016105e390612b45565b600b546040517fba3393990000000000000000000000000000000000000000000000000000000081526001600160a01b039091169063ba33939990610d439087908790600401613510565b6060818061131e60146114e0565b1161133b5760405162461bcd60e51b81526004016105e390612ae8565b60008381526008602090815260409182902080548351601f60026000196101006001861615020190931692909204918201849004840281018401909452808452606093928301828280156113d05780601f106113a5576101008083540402835291602001916113d0565b820191906000526020600020905b8154815290600101906020018083116113b357829003601f168201915b509398975050505050505050565b60135481565b600d602052600090815260409020546001600160a01b031681565b6001600160a01b03918216600090815260056020908152604080832093909416825291909152205460ff1690565b600b546001600160a01b031681565b600f6020526000908152604090205481565b6000610a3660028363ffffffff611a1916565b3390565b6000818152600460205260409020805473ffffffffffffffffffffffffffffffffffffffff19166001600160a01b03841690811790915581906114a782610d80565b6001600160a01b03167f8c5be1e5ebec7d5bd14f71427d1e84f3dd0314c0f7b2291e5b200ac8c7c3b92560405160405180910390a45050565b5490565b6000610a36826114e0565b60006114fa8261144e565b6115165760405162461bcd60e51b81526004016105e390612e18565b600061152183610d80565b9050806001600160a01b0316846001600160a01b0316148061155c5750836001600160a01b0316611551846105bc565b6001600160a01b0316145b8061156c575061156c81856113ff565b949350505050565b61157d8261144e565b6115995760405162461bcd60e51b81526004016105e390613075565b6000828152600860209081526040909120825161069b928401906123b9565b600b546040516328220f3560e01b81526001600160a01b03909116906328220f35906115e8908490600401612a8a565b600060405180830381600087803b15801561160257600080fd5b505af1158015611616573d6000803e3d6000fd5b5050505061069b838383611a25565b815180516116455760405162461bcd60e51b81526004016105e3906133ba565b602083015180516116685760405162461bcd60e51b81526004016105e3906133ba565b60135461167361076b565b106116905760405162461bcd60e51b81526004016105e390612e64565b60408401516116b15760405162461bcd60e51b81526004016105e390612e9b565b60408085015160009081526012602052205460ff16156116e35760405162461bcd60e51b81526004016105e39061326c565b60608401516117045760405162461bcd60e51b81526004016105e390612dbb565b600061171060146114e0565b905061171c8682611b45565b6117266014611b5f565b611734818660400151611b68565b611742818660600151611ba1565b6117508186602001516119d4565b61175e818660000151611574565b6001600160a01b0386166000908152600e60205260409020611786908263ffffffff611bda16565b50604080860151600090815260126020908152828220805460ff19166001179055838252600d815282822080546001600160a01b03808c1673ffffffffffffffffffffffffffffffffffffffff199283168117909355600c90935292849020805490931617909155600b5491517feb55683a00000000000000000000000000000000000000000000000000000000815291169063eb55683a9061182f90849088906004016134e6565b600060405180830381600087803b15801561184957600080fd5b505af115801561185d573d6000803e3d6000fd5b50505050505050505050565b6000610a338383611be6565b6118808484846115b8565b61188c84848484611c2b565b61126f5760405162461bcd60e51b81526004016105e390612bd9565b60008181526008602090815260409182902080548351601f600260001961010060018616150201909316929092049182018490048402810184019094528084526060939283018282801561193d5780601f106119125761010080835404028352916020019161193d565b820191906000526020600020905b81548152906001019060200180831161192057829003601f168201915b5050505050905061194d82611d52565b8051156119755760008281526008602090815260409091208251611973928401906123b9565b505b506000908152600c60205260409020805473ffffffffffffffffffffffffffffffffffffffff19169055565b60008080806119b08686611e2b565b9097909650945050505050565b60006119ca848484611e87565b90505b9392505050565b816119de8161144e565b6119fa5760405162461bcd60e51b81526004016105e3906130c1565b6000838152601160209081526040909120835161126f928501906123b9565b6000610a338383611ee6565b826001600160a01b0316611a3882610d80565b6001600160a01b031614611a5e5760405162461bcd60e51b81526004016105e3906130f8565b6001600160a01b038216611a845760405162461bcd60e51b81526004016105e390612cca565b611a8f83838361069b565b611a9a600082611465565b6001600160a01b0383166000908152600160205260409020611ac2908263ffffffff611efe16565b506001600160a01b0382166000908152600160205260409020611aeb908263ffffffff611bda16565b50611afe6002828463ffffffff611f0a16565b5080826001600160a01b0316846001600160a01b03167fddf252ad1be2c89b69c2b068fc378daa952ba7f163c4a11628f55a4df523b3ef60405160405180910390a4505050565b610acb828260405180602001604052806000815250611f20565b80546001019055565b81611b728161144e565b611b8e5760405162461bcd60e51b81526004016105e3906130c1565b506000918252600f602052604090912055565b81611bab8161144e565b611bc75760405162461bcd60e51b81526004016105e3906130c1565b5060009182526010602052604090912055565b6000610a338383611f53565b81546000908210611c095760405162461bcd60e51b81526004016105e390612aa6565b826000018281548110611c1857fe5b9060005260206000200154905092915050565b6000611c3f846001600160a01b0316611f9d565b611c4b5750600161156c565b6060611d03630a85bd0160e11b611c60611461565b888787604051602401611c769493929190612a04565b604051602081830303815290604052907bffffffffffffffffffffffffffffffffffffffffffffffffffffffff19166020820180517bffffffffffffffffffffffffffffffffffffffffffffffffffffffff83818316178352505050506040518060600160405280603281526020016135e6603291396001600160a01b038816919063ffffffff611fa316565b9050600081806020019051810190611d1b9190612708565b7fffffffff0000000000000000000000000000000000000000000000000000000016630a85bd0160e11b1492505050949350505050565b6000611d5d82610d80565b9050611d6b8160008461069b565b611d76600083611465565b6000828152600860205260409020546002600019610100600184161502019091160415611db4576000828152600860205260408120611db491612437565b6001600160a01b0381166000908152600160205260409020611ddc908363ffffffff611efe16565b50611dee60028363ffffffff611fb216565b5060405182906000906001600160a01b038416907fddf252ad1be2c89b69c2b068fc378daa952ba7f163c4a11628f55a4df523b3ef908390a45050565b815460009081908310611e505760405162461bcd60e51b81526004016105e390612fb2565b6000846000018481548110611e6157fe5b906000526020600020906002020190508060000154816001015492509250509250929050565b60008281526001840160205260408120548281611eb75760405162461bcd60e51b81526004016105e39190612a93565b50846000016001820381548110611eca57fe5b9060005260206000209060020201600101549150509392505050565b60009081526001919091016020526040902054151590565b6000610a338383611fbe565b60006119ca84846001600160a01b038516612084565b611f2a838361211b565b611f376000848484611c2b565b61069b5760405162461bcd60e51b81526004016105e390612bd9565b6000611f5f8383611ee6565b611f9557508154600181810184556000848152602080822090930184905584548482528286019093526040902091909155610a36565b506000610a36565b3b151590565b60606119ca84846000856121eb565b6000610a3383836122ac565b6000818152600183016020526040812054801561207a5783546000198083019190810190600090879083908110611ff157fe5b906000526020600020015490508087600001848154811061200e57fe5b60009182526020808320909101929092558281526001898101909252604090209084019055865487908061203e57fe5b60019003818190600052602060002001600090559055866001016000878152602001908152602001600020600090556001945050505050610a36565b6000915050610a36565b6000828152600184016020526040812054806120e95750506040805180820182528381526020808201848152865460018181018955600089815284812095516002909302909501918255915190820155865486845281880190925292909120556119cd565b828560000160018303815481106120fc57fe5b90600052602060002090600202016001018190555060009150506119cd565b6001600160a01b0382166121415760405162461bcd60e51b81526004016105e390612ff4565b61214a8161144e565b156121675760405162461bcd60e51b81526004016105e390612c36565b6121736000838361069b565b6001600160a01b038216600090815260016020526040902061219b908263ffffffff611bda16565b506121ae6002828463ffffffff611f0a16565b5060405181906001600160a01b038416906000907fddf252ad1be2c89b69c2b068fc378daa952ba7f163c4a11628f55a4df523b3ef908290a45050565b60608247101561220d5760405162461bcd60e51b81526004016105e390612d5e565b61221685611f9d565b6122325760405162461bcd60e51b81526004016105e390613383565b60006060866001600160a01b0316858760405161224f91906129d4565b60006040518083038185875af1925050503d806000811461228c576040519150601f19603f3d011682016040523d82523d6000602084013e612291565b606091505b50915091506122a1828286612380565b979650505050505050565b6000818152600183016020526040812054801561207a57835460001980830191908101906000908790839081106122df57fe5b90600052602060002090600202019050808760000184815481106122ff57fe5b60009182526020808320845460029093020191825560019384015491840191909155835482528983019052604090209084019055865487908061233e57fe5b6000828152602080822060026000199094019384020182815560019081018390559290935588815289820190925260408220919091559450610a369350505050565b6060831561238f5750816119cd565b82511561239f5782518084602001fd5b8160405162461bcd60e51b81526004016105e39190612a93565b828054600181600116156101000203166002900490600052602060002090601f016020900481019282601f106123fa57805160ff1916838001178555612427565b82800160010185558215612427579182015b8281111561242757825182559160200191906001019061240c565b5061243392915061247e565b5090565b50805460018160011615610100020316600290046000825580601f1061245d575061247b565b601f01602090049060005260206000209081019061247b919061247e565b50565b6105b991905b808211156124335760008155600101612484565b80356001600160a01b0381168114610a3657600080fd5b600082601f8301126124bf578081fd5b813567ffffffffffffffff8111156124d5578182fd5b6124e8601f8201601f191660200161354f565b91508082528360208285010111156124ff57600080fd5b8060208401602084013760009082016020015292915050565b600060608284031215612529578081fd5b612533606061354f565b905061253f838361256b565b815261254e836020840161256b565b6020820152612560836040840161256b565b604082015292915050565b60006020828403121561257c578081fd5b612586602061354f565b9135825250919050565b6000602082840312156125a1578081fd5b610a338383612498565b600080604083850312156125bd578081fd5b6125c78484612498565b91506125d68460208501612498565b90509250929050565b6000806000606084860312156125f3578081fd5b83356125fe816135a2565b9250602084013561260e816135a2565b929592945050506040919091013590565b60008060008060808587031215612634578081fd5b61263e8686612498565b935061264d8660208701612498565b925060408501359150606085013567ffffffffffffffff81111561266f578182fd5b61267b878288016124af565b91505092959194509250565b60008060408385031215612699578182fd5b6126a38484612498565b9150602083013580151581146126b7578182fd5b809150509250929050565b600080604083850312156126d4578182fd5b6126de8484612498565b946020939093013593505050565b6000602082840312156126fd578081fd5b81356119cd816135b7565b600060208284031215612719578081fd5b81516119cd816135b7565b60008060808385031215612736578182fd5b823567ffffffffffffffff8082111561274d578384fd5b8185016080818803121561275f578485fd5b612769608061354f565b9250803582811115612779578586fd5b612785888284016124af565b845250602081013582811115612799578586fd5b6127a5888284016124af565b60208501525060408101356040840152606081013560608401525050809250506125d68460208501612518565b6000602082840312156127e3578081fd5b5035919050565b600080604083850312156127fc578182fd5b823591506125d68460208501612498565b600080600060408486031215612821578081fd5b83359250602084013567ffffffffffffffff8082111561283f578283fd5b81860187601f820112612850578384fd5b8035925081831115612860578384fd5b876020848301011115612871578384fd5b949760209095019650909450505050565b6000808284036060811215612895578283fd5b833592506040601f19820112156128aa578182fd5b506128b5604061354f565b602084013581526128c98560408601612498565b6020820152809150509250929050565b60008082840360c08112156128ec578283fd5b8335925060a0601f1982011215612901578182fd5b5061290c60a061354f565b602084013581526129208560408601612498565b60208201526129328560608601612498565b60408201526129448560808601612498565b60608201526129568560a0860161256b565b6080820152809150509250929050565b6000815180845261297e816020860160208601613576565b601f01601f19169290920160200192915050565b8051825260208101516001600160a01b038082166020850152806040840151166040850152806060840151166060850152505060808101515160808301525050565b600082516129e6818460208701613576565b9190910192915050565b6001600160a01b0391909116815260200190565b60006001600160a01b03808716835280861660208401525083604083015260806060830152612a366080830184612966565b9695505050505050565b60006001600160a01b03851682526040602083015282604083015282846060840137818301606090810191909152601f909201601f1916010192915050565b901515815260200190565b90815260200190565b600060208252610a336020830184612966565b60208082526022908201527f456e756d657261626c655365743a20696e646578206f7574206f6620626f756e604082015261647360f01b606082015260800190565b60208082526029908201527f4176617461723a20746f6b656e2077697468207468617420696420646f65732060408201527f6e6f742065786973740000000000000000000000000000000000000000000000606082015260800190565b6020808252601e908201527f4176617461723a204f6e6c7920617070726f766564206f72206f776e65720000604082015260600190565b60208082526024908201527f4176617461723a206f6e6c792061766174617245786368616e676520636f6e7460408201527f7261637400000000000000000000000000000000000000000000000000000000606082015260800190565b60208082526032908201527f4552433732313a207472616e7366657220746f206e6f6e20455243373231526560408201527f63656976657220696d706c656d656e7465720000000000000000000000000000606082015260800190565b6020808252601c908201527f4552433732313a20746f6b656e20616c7265616479206d696e74656400000000604082015260600190565b60208082526030908201527f4176617461723a20746f6b656e20646f6573206e6f742068617665206861736860408201527f206f6620697473206d6574616461746100000000000000000000000000000000606082015260800190565b60208082526024908201527f4552433732313a207472616e7366657220746f20746865207a65726f2061646460408201527f7265737300000000000000000000000000000000000000000000000000000000606082015260800190565b60208082526019908201527f4552433732313a20617070726f766520746f2063616c6c657200000000000000604082015260600190565b60208082526026908201527f416464726573733a20696e73756666696369656e742062616c616e636520666f60408201527f722063616c6c0000000000000000000000000000000000000000000000000000606082015260800190565b60208082526026908201527f4176617461723a206d657461646174612068617368206d757374206265206e6f60408201527f6e2d7a65726f0000000000000000000000000000000000000000000000000000606082015260800190565b6020808252602c908201527f4552433732313a206f70657261746f7220717565727920666f72206e6f6e657860408201526b34b9ba32b73a103a37b5b2b760a11b606082015260800190565b60208082526015908201527f4c616e643a20737570706c79206465706c657465640000000000000000000000604082015260600190565b60208082526025908201527f4176617461723a20636f6e74656e742068617368206d757374206265206e6f6e60408201527f2d7a65726f000000000000000000000000000000000000000000000000000000606082015260800190565b60208082526038908201527f4552433732313a20617070726f76652063616c6c6572206973206e6f74206f7760408201527f6e6572206e6f7220617070726f76656420666f7220616c6c0000000000000000606082015260800190565b6020808252602a908201527f4552433732313a2062616c616e636520717565727920666f7220746865207a6560408201527f726f206164647265737300000000000000000000000000000000000000000000606082015260800190565b60208082526022908201527f456e756d657261626c654d61703a20696e646578206f7574206f6620626f756e604082015261647360f01b606082015260800190565b6020808252818101527f4552433732313a206d696e7420746f20746865207a65726f2061646472657373604082015260600190565b6020808252602c908201527f4552433732313a20617070726f76656420717565727920666f72206e6f6e657860408201526b34b9ba32b73a103a37b5b2b760a11b606082015260800190565b6020808252602c908201527f4552433732314d657461646174613a2055524920736574206f66206e6f6e657860408201526b34b9ba32b73a103a37b5b2b760a11b606082015260800190565b60208082526019908201527f4176617461723a206e6f6e6578697374656e7420746f6b656e00000000000000604082015260600190565b60208082526029908201527f4552433732313a207472616e73666572206f6620746f6b656e2074686174206960408201527f73206e6f74206f776e0000000000000000000000000000000000000000000000606082015260800190565b60208082526029908201527f41766174617245786368616e67653a20426964646572206d757374206265206d60408201527f73672073656e6465720000000000000000000000000000000000000000000000606082015260800190565b60208082526023908201527f4176617461723a2063616c6c6572206e6f7420617070726f766564206164647260408201527f6573730000000000000000000000000000000000000000000000000000000000606082015260800190565b60208082526033908201527f4176617461723a20746f6b656e20646f6573206e6f742068617665206861736860408201527f206f66206372656174656420636f6e74656e7400000000000000000000000000606082015260800190565b6020808252603f908201527f4176617461723a206120746f6b656e2068617320616c7265616479206265656e60408201527f20637265617465642077697468207468697320636f6e74656e74206861736800606082015260800190565b60208082526021908201527f4552433732313a20617070726f76616c20746f2063757272656e74206f776e6560408201527f7200000000000000000000000000000000000000000000000000000000000000606082015260800190565b60208082526031908201527f4552433732313a207472616e736665722063616c6c6572206973206e6f74206f60408201527f776e6572206e6f7220617070726f766564000000000000000000000000000000606082015260800190565b6020808252601d908201527f416464726573733a2063616c6c20746f206e6f6e2d636f6e7472616374000000604082015260600190565b60208082526027908201527f4176617461723a2073706563696669656420757269206d757374206265206e6f60408201527f6e2d656d70747900000000000000000000000000000000000000000000000000606082015260800190565b6020808252601f908201527f5265656e7472616e637947756172643a207265656e7472616e742063616c6c00604082015260600190565b60208082526026908201527f4176617461723a206f776e6572206973206e6f742063726561746f72206f662060408201527f6176617461720000000000000000000000000000000000000000000000000000606082015260800190565b9182526001600160a01b0316602082015260400190565b918252805160208084019190915201516001600160a01b0316604082015260600190565b91825280515160208084019190915281015151604080840191909152015151606082015260800190565b82815260c081016119cd6020830184612992565b83815260e081016135386020830185612992565b6001600160a01b03831660c0830152949350505050565b60405181810167ffffffffffffffff8111828210171561356e57600080fd5b604052919050565b60005b83811015613591578181015183820152602001613579565b8381111561126f5750506000910152565b6001600160a01b038116811461247b57600080fd5b7fffffffff000000000000000000000000000000000000000000000000000000008116811461247b57600080fdfe4552433732313a207472616e7366657220746f206e6f6e20455243373231526563656976657220696d706c656d656e7465724552433732313a206f776e657220717565727920666f72206e6f6e6578697374656e7420746f6b656ea2646970667358221220bc7bac984cf4bb23bae9817b7f1426eea35537e130e84dc0c91f9b11f1f027df64736f6c63430006080033",
  "linkReferences": {},
  "deployedLinkReferences": {}
}